HDR20160614195505000000019OH                                                                                                                                                                                                                                              0
D454003900   00KUHNHEIN,ROBERT STEVEN        34 RIVERVIEW AVE                                FT THOMAS               KY41075    USA859-415-3826   068       CBG       402964486   20130522                        A119721204SFCBUSALC  OH                20160614  M005   1
C454024900   01BAKER,DONALD A                601 HARRISON AVE                                HARRISON                OH45030    USA               068       CBG                   20141222                        C219270427PRCBUSALC  OH                20160614  M005   1
C454024900   02BAKER,SARAH A                 601 HARRISON AVE                                HARRISON                OH45030    USA               068       CBG                   20141222                        C219830514NDCBUSALC  OH                20160614  F005   1
C454024900   03BAKER,CHRISTOPHER J           601 HARRISON AVE                                HARRISON                OH45030    USA               068       CBG                   20141222                        C219860501NDCBUSALC  OH                20160614  M005   1
C454024900   04BENNETT,STEPHANIE             601 HARRISON AVE                                HARRISON                OH45030    USA513-706-7319   068       CBG                   20141222                        C219650604DPCBUSALC  OH                20160614  F005   1
A454026200   01MELARA,MARISOL                23317 WATER CIRCLE                              BOCA RATON              FL33486    USA               068       CBG                   20150107                        C219920916NDCBUSALC  OH                20160614  F      1
A454026200   02MIDENCE,LORENA M              23317 WATER CIRCLE                              BOCA RATON              FL33486    USA999-999-9999   068       CBG                   20150107                        C219650404SPCBUSALC  OH                20160614  F      1
A454026200   03MELARA,ROBERTA                23317 WATER CIRCLE                              BOCA RATON              FL33486    USA999-999-9999   068       CBG                   20150107                        C219980807CDCBUSALC  OH                20160614  F      1
A454048600   01ALDRIDGE-PORTARO,CYNTHIA      14868 INDIGO LAKES CIRCL                        NAPLES                  FL34119    USA999-999-9999   068       CBG                   20160528                        C219700913SPCBUSALC  OH                20160614  F012   1
A454048600   02PORTARO,NICHOLAS D            14868 INDIGO LAKES CIRCL                        NAPLES                  FL34119    USA999-999-9999   068       CBG                   20160528                        C220000212CDCBUSALC  OH                20160614  M012   1
A454048600   03PORTARO,ALEXANDRA             14868 INDIGO LAKES CIRCL                        NAPLES                  FL34119    USA999-999-9999   068       CBG                   20160528                        C220020819CDCBUSALC  OH                20160614  F012   1
A454026900   01WATSON,JAN B                  6616 CAMILLE AVE                                DALLAS                  TX75252    USA               068       CBG                   20150109                        C219540615PRCBUSALC  OH                20160614  F      1
A454026900   02CLANTON,DAWSON C              6616 CAMILLE AVE                                DALLAS                  TX75252    USA999-999-9999   068       CBG                   20150109                        C220060808CDCBUSALC  OH                20160614  M      1
A454026900   03CLANTON,AUBREY M              6616 CAMILLE AVE                                DALLAS                  TX75252    USA999-999-9999   068       CBG                   20150109                        C220080923CDCBUSALC  OH                20160614  F      1
A454026900   04MILLS,SARAH M                 6616 CAMILLE AVE                                DALLAS                  TX75252    USA999-999-9999   068       CBG                   20150109                        C219860624DPCBUSALC  OH                20160614  F      1
C454026900   01WATSON,JAN B                  6616 CAMILLE AVE                                DALLAS                  TX75252    USA               068       CBG                   20150109                        C219540615PRCBUSALC  OH                20160614  F      1
C454026900   02CLANTON,DAWSON C              6616 CAMILLE AVE                                DALLAS                  TX75252    USA999-999-9999   068       CBG                   20150109                        C220060808CDCBUSALC  OH                20160614  M      1
C454026900   03CLANTON,AUBREY M              6616 CAMILLE AVE                                DALLAS                  TX75252    USA999-999-9999   068       CBG                   20150109                        C220080923CDCBUSALC  OH                20160614  F      1
C454026900   04MILLS,SARAH M                 6616 CAMILLE AVE                                DALLAS                  TX75252    USA999-999-9999   068       CBG                   20150109                        C219860624DPCBUSALC  OH                20160614  F      1
